:100000000C943C000C9451000C9451000C94510041
:100010000C9451000C9451000C9451000C9451001C
:100020000C9451000C9451000C9451000C9451000C
:100030000C9451000C9451000C9451000C945100FC
:100040000C9451000C9451000C9451000C945100EC
:100050000C9451000664EC1B3C04BC163E3BE5B915
:100060003CC93C37C29E5A3D660498083EEA69AADC
:10007000AA3E000000803F0011241FBECFE5D8E05B
:10008000DEBFCDBF11E0A0E6B0E0E8ECF4E102C0D5
:1000900005900D92A836B107D9F70E9475060C9409
:1000A000620A0C940000EF92FF920F931F937B0162
:1000B0008C0120E030E040E05FE40E94530388239D
:1000C0008CF0C801B70120E030E040E05FE40E941E
:1000D000CB010E94B3039B01AC0120503040404053
:1000E000504806C0C801B7010E94B3039B01AC0190
:1000F000B901CA011F910F91FF90EF900895A0E000
:10010000B0E0E5E8F0E00C941E08DC012B01FA01F8
:100110009C91923008F439C1EB018881823008F457
:1001200033C1943069F4843009F02FC111969C9149
:1001300011978981981709F428C1A0E6B0E025C17C
:10014000843009F421C18230A9F4923009F01DC134
:100150009A01AD0188E0EA010990AE01E901099236
:100160009E018150C1F7E201898111969C918923FA
:10017000818308C1923009F407C112962D903C90FA
:100180001397EB018A819B811496AD90BD90CD9021
:10019000DC901797EC80FD800E811F819101281B58
:1001A000390BB90137FF04C066277727621B730B31
:1001B000603271050CF061C0121613066CF5370140
:1001C0004801062E04C096948794779467940A9405
:1001D000D2F721E030E040E050E004C0220F331FAE
:1001E000441F551F6A95D2F721503040404050407F
:1001F0002E213F2140235123211531054105510571
:1002000021F021E030E040E050E079018A01E62869
:10021000F728082919293CC0232BD1F1260E371EB7
:1002200035014601062E04C096948794779467940E
:100230000A94D2F721E030E040E050E004C0220F01
:10024000331F441F551F6A95D2F72150304040405C
:1002500050402A213B214C215D21211531054105CA
:10026000510521F021E030E040E050E059016A0101
:10027000A628B728C828D9280BC0821593052CF0CA
:100280001C01AA24BB24650103C0EE24FF248701BE
:1002900011969C91D20111968C91981709F445C042
:1002A000992339F0A80197012A193B094C095D09E6
:1002B00006C0A60195012E193F09400B510B57FDB1
:1002C00008C0118233822282248335834683578378
:1002D0001DC081E081833382228288279927DC0137
:1002E000821B930BA40BB50B84839583A683B783E2
:1002F0000DC0220F331F441F551F248335834683AF
:1003000057838281938101979383828324813581EE
:1003100046815781DA01C9010197A109B1098F5FAF
:100320009F4FAF4FBF4328F30BC09183338222828C
:10033000EA0CFB1C0C1D1D1DE482F582068317834D
:1003400083E08083248135814681578157FF1AC01D
:10035000C901AA2797FDA095BA2F81709070A0704F
:10036000B0705695479537952795822B932BA42BE4
:10037000B52B84839583A683B7838281938101966D
:1003800093838283DF0101C0D201CD01CDB7DEB7F7
:10039000E2E10C943A08A0E2B0E0E1EDF1E00C9467
:1003A0002A0869837A838B839C832D833E834F83C2
:1003B0005887E9E0EE2EF12CEC0EFD1ECE010196E1
:1003C000B7010E94A4058E010F5E1F4FCE01059656
:1003D000B8010E94A4058A8991E089278A8BC70108
:1003E000B801AE01475E5F4F0E947F000E94CF04BC
:1003F000A096E6E00C944608A0E2B0E0E2E0F2E06D
:100400000C942A0869837A838B839C832D833E8393
:100410004F835887F9E0EF2EF12CEC0EFD1ECE0134
:100420000196B7010E94A4058E010F5E1F4FCE01F9
:100430000596B8010E94A405C701B801AE01475E48
:100440005F4F0E947F000E94CF04A096E6E00C94CC
:100450004608A0E2B0E0EFE2F2E00C941E086983E7
:100460007A838B839C832D833E834F835887CE0171
:100470000196BE01675F7F4F0E94A405CE010596DD
:10048000BE016F5E7F4F0E94A4059985923088F06F
:1004900089898230C8F0943019F4823051F404C054
:1004A000843029F4923081F480E690E0C6C0923026
:1004B00049F420E09A858A89981321E02A87CE01A1
:1004C0000996BBC0823049F420E09A858A89981346
:1004D00021E02A8BCE014196B0C02D843E844F840A
:1004E00058886D887E888F88988CEE24FF24870139
:1004F000AA24BB24650140E050E060E070E0E0E049
:10050000F0E0C10181709070892BE9F0E60CF71CD6
:10051000081D191D9A01AB012A0D3B1D4C1D5D1DC7
:1005200080E090E0A0E0B0E0E614F70408051905CB
:1005300020F481E090E0A0E0B0E0BA01A901480F0A
:10054000591F6A1F7B1FAA0CBB1CCC1CDD1C97FE0D
:1005500008C081E090E0A0E0B0E0A82AB92ACA2A49
:10056000DB2A3196E032F10549F0660C771C881CD5
:10057000991C5694479437942794C3CFFA85EA89F7
:100580002B893C898B859C85280F391F2E5F3F4F17
:1005900017C0CA0181709070892B61F0169507957C
:1005A000F794E79480E090E0A0E0B0E8E82AF92A28
:1005B0000A2B1B2B76956795579547952F5F3F4FD5
:1005C00077FDE7CF0CC0440F551F661F771F17FD3F
:1005D0004160EE0CFF1C001F111F215030404030C5
:1005E00090E0590790E0690790E4790760F32B8F5A
:1005F0003C8FDB01CA018F779070A070B07080349F
:100600009105A105B10561F447FD0AC0E114F104AB
:100610000105110529F0405C5F4F6F4F7F4F407817
:100620001A8EFE1711F081E08A8F4D8F5E8F6F8FCB
:1006300078A383E0898FCE0149960E94CF04A096CB
:10064000E2E10C943A08A8E1B0E0E9E2F3E00C94AE
:100650002A0869837A838B839C832D833E834F830F
:10066000588789E0E82EF12CEC0EFD1ECE01019694
:10067000B7010E94A4058E010F5E1F4FCE010596A3
:10068000B8010E94A4058985823040F089898230B2
:1006900028F0C701B8010E941C0601C08FEF6896C0
:1006A000E6E00C944608A8E1B0E0E9E5F3E00C943C
:1006B0002A0869837A838B839C832D833E834F83AF
:1006C000588789E0E82EF12CEC0EFD1ECE01019634
:1006D000B7010E94A4058E010F5E1F4FCE01059643
:1006E000B8010E94A4058985823040F08989823052
:1006F00028F0C701B8010E941C0601C08FEF689660
:10070000E6E00C944608A8E1B0E0E9E8F3E00C94D8
:100710002A0869837A838B839C832D833E834F834E
:10072000588789E0E82EF12CEC0EFD1ECE010196D3
:10073000B7010E94A4058E010F5E1F4FCE010596E2
:10074000B8010E94A4058985823040F089898230F1
:1007500028F0C701B8010E941C0601C081E068961C
:10076000E6E00C944608ACE0B0E0E9EBF3E00C9472
:100770002E0869837A838B839C83CE010196BE0108
:100780006B5F7F4F0E94A4058D81823061F18230C2
:1007900050F1843021F48E81882351F12EC02F81B5
:1007A000388537FD20C06E812F3131051CF066235E
:1007B000F9F023C08EE190E0821B930B29853A85E6
:1007C0004B855C8504C056954795379527958A9546
:1007D000D2F76623B1F050954095309521953F4F63
:1007E0004F4F5F4F0EC020E030E040E050E009C0C6
:1007F0002FEF3FEF4FEF5FE704C020E030E040E035
:1008000050E8B901CA012C96E2E00C944A08A8E02D
:10081000B0E0EDE0F4E00C9426087B018C0161155A
:1008200071058105910519F482E0898360C083E038
:1008300089838EE1C82ED12CDC82CB82ED82FE82B0
:100840000F831887C801B7010E948004FC0131970B
:10085000F7FF3BC0222733272E1B3F0B57016801B0
:10086000022E04C0D694C794B794A7940A94D2F7E2
:1008700040E050E060E070E081E090E0A0E0B0E0B7
:1008800004C0880F991FAA1FBB1F2A95D2F7019792
:10089000A109B1098E219F21A023B1230097A105B1
:1008A000B10521F041E050E060E070E04A295B29A9
:1008B0006C297D294D835E836F8378878EE190E07C
:1008C0008E1B9F0B9C838B8312C0309781F00E2E62
:1008D00004C0EE0CFF1C001F111F0A94D2F7ED821A
:1008E000FE820F831887CE1ADF0ADC82CB821A823F
:1008F000CE0101960E94CF042896EAE00C944208AB
:10090000EF92FF920F931F937B018C0180E0E8161A
:1009100080E0F80681E0080780E0180788F48FEF90
:10092000E816F1040105110531F028F088E090E0A7
:10093000A0E0B0E017C080E090E0A0E0B0E012C01E
:1009400080E0E81680E0F80680E0080781E01807FC
:1009500028F088E190E0A0E0B0E004C080E190E001
:10096000A0E0B0E020E230E040E050E0281B390B8E
:100970004A0B5B0B04C016950795F794E7948A958C
:10098000D2F7F701E859FF4F8081281B310941094F
:100990005109C9011F910F91FF90EF900895DF92C7
:1009A000EF92FF920F931F93FC01E480F580068184
:1009B0001781D1808081823048F480E090E0A0E10E
:1009C000B0E0E82AF92A0A2B1B2BA5C0843009F4D1
:1009D0009FC0823021F4EE24FF24870105C0E1147A
:1009E000F1040105110519F4E0E0F0E096C0628120
:1009F00073819FEF623879070CF05BC022E83FEF0C
:100A0000261B370B2A3131052CF020E030E040E086
:100A100050E02AC0B801A701022E04C07695679560
:100A2000579547950A94D2F781E090E0A0E0B0E0B6
:100A300004C0880F991FAA1FBB1F2A95D2F70197E0
:100A4000A109B1098E219F21A023B1230097A105FF
:100A5000B10521F081E090E0A0E0B0E09A01AB01A7
:100A6000282B392B4A2B5B2BDA01C9018F77907029
:100A7000A070B07080349105A105B10539F427FF4D
:100A800009C0205C3F4F4F4F5F4F04C0215C3F4F78
:100A90004F4F5F4FE0E0F0E02030A0E03A07A0E0E9
:100AA0004A07A0E45A0710F0E1E0F0E079018A017A
:100AB00027C06038710564F5FB01E158FF4FD8018C
:100AC000C7018F779070A070B07080349105A10538
:100AD000B10539F4E7FE0DC080E490E0A0E0B0E09D
:100AE00004C08FE390E0A0E0B0E0E80EF91E0A1F1A
:100AF0001B1F17FF05C016950795F794E7943196CD
:100B000087E016950795F794E7948A95D1F705C085
:100B1000EE24FF248701EFEFF0E06E2F6795662744
:100B20006795902F9F77D794DD24D7948E2F869545
:100B3000492F462B582F5D29B701CA011F910F91EC
:100B4000FF90EF90DF900895FC01DB01408151811F
:100B50002281622F6F7770E0221F2227221F93814C
:100B6000892F880F822B282F30E0991F9927991FF2
:100B700011969C93119721153105A9F54115510541
:100B80006105710511F482E037C082E89FEF13968A
:100B90009C938E9312979A01AB0167E0220F331F4B
:100BA000441F551F6A95D1F783E08C930DC0220F27
:100BB000331F441F551F12968D919C9113970197D7
:100BC00013969C938E931297203080E0380780E034
:100BD000480780E4580758F314962D933D934D939E
:100BE0005C93179708952F3F310579F4411551050E
:100BF0006105710519F484E08C93089564FF03C0C6
:100C000081E08C9312C01C9210C02F573040139675
:100C10003C932E93129783E08C9387E0440F551FEB
:100C2000661F771F8A95D1F7706414964D935D9374
:100C30006D937C93179708951F93DC01FB019C91A2
:100C4000923008F447C08081823008F443C0943069
:100C500051F411961C91843099F58181682F70E0D0
:100C6000611B71093FC0843021F0923031F4823031
:100C7000B9F18181882389F12DC011961C911197BA
:100C80008230F1F081811817D9F412962D913C91A0
:100C90001397828193818217930794F0281739075D
:100CA000BCF014968D919D910D90BC91A02D248146
:100CB000358146815781281739074A075B0718F4A1
:100CC000112341F00AC082179307A407B50740F427
:100CD000112319F061E070E005C06FEF7FEF02C0F3
:100CE00060E070E0CB011F910895DF93CF93CDB703
:100CF000DEB7C259D0400FB6F894DEBF0FBECDBFED
:100D0000EAE3F0E08FEF8083FE01E557FF4F1082AA
:100D10001182128213821482158216821782FE01BA
:100D2000ED57FF4F108211821282138214821582B6
:100D300016821782FE01E558FF4F86E080831182FC
:100D4000128213821482158216821782FE01ED58D8
:100D5000FF4F86E0808311821282138214821582F3
:100D600016821782FE01E559FF4F83E080831182CE
:100D7000128213821482158216821782FE01ED59A7
:100D8000FF4F82E0808311821282138214821582C7
:100D900016821782FE01E55AFF4F84E0808311829C
:100DA000128213821482158216821782FE01ED5A76
:100DB000FF4F84E080831182128213821482158295
:100DC0001682178289E089A389A1882F90E0A0E08C
:100DD000B0E0BC01CD010E940704DC01CB01BC01E5
:100DE000CD010E945508DC01CB01BC01CD010E9460
:100DF0005300DC01CB018AA318A21F8E87C0ABE38E
:100E0000B0E0EBE3F0E08081282F81E090E00F8CF0
:100E100002C0880F991F0A94E2F7822B8C9380E01E
:100E200090E0A8ECB2E4898F9A8FAB8FBC8F698D6C
:100E30007A8D8B8D9C8D20E030E04AE753E40E9450
:100E40002902DC01CB018D8B9E8BAF8BB88F6D8916
:100E50007E898F89988D20E030E040E85FE30E9432
:100E6000830388232CF481E090E09C8B8B8B3FC024
:100E70006D897E898F89988D20E03FEF4FE757E499
:100E80000E94230318164CF5698D7A8D8B8D9C8DED
:100E900020E030E040E251E40E942902DC01CB0175
:100EA000BC01CD010E945300DC01CB019C8B8B8BDC
:100EB0000FC089E190E09A8B898B89899A89019783
:100EC000F1F79A8B898B8B899C8901979C8B8B8BF3
:100ED0008B899C89009769F714C06D897E898F89F9
:100EE000988D0E945300DC01CB019C8B8B8B8B89EE
:100EF0009C89988B8F878F8598890197F1F7988BBC
:100F00008F878F8D98A1019698A38F8F8F8D98A131
:100F1000883091050CF473CF1E8E1D8E88C0ABE314
:100F2000B0E0EBE3F0E08081282F81E090E00D8CD1
:100F300002C0880F991F0A94E2F7809582238C9350
:100F400080E090E0A8ECB2E48B879C87AD87BE87F9
:100F50006B857C858D859E8520E030E04AE753E4F3
:100F60000E942902DC01CB018F839887A987BA8769
:100F70006F81788589859A8520E030E040E85FE3DD
:100F80000E94830388232CF481E090E09E838D836C
:100F90003FC06F81788589859A8520E03FEF4FE7D4
:100FA00057E40E94230318164CF56B857C858D85CC
:100FB0009E8520E030E040E251E40E942902DC01FD
:100FC000CB01BC01CD010E945300DC01CB019E830B
:100FD0008D830FC089E190E09C838B838B819C8102
:100FE0000197F1F79C838B838D819E8101979E836E
:100FF0008D838D819E81009769F714C06F817885FC
:1010000089859A850E945300DC01CB019E838D83E4
:101010008D819E819A83898389819A810197F1F7D5
:101020009A8389838D8D9E8D01969E8F8D8F8D8D58
:101030009E8D883091050CF472CFDECE2F923F92B8
:101040004F925F926F927F928F929F92AF92BF92D8
:10105000CF92DF92EF92FF920F931F93CF93DF9384
:10106000CDB7DEB7CA1BDB0B0FB6F894DEBF0FBEE1
:10107000CDBF09942A88398848885F846E847D842E
:101080008C849B84AA84B984C884DF80EE80FD8030
:101090000C811B81AA81B981CE0FD11D0FB6F894A6
:1010A000DEBF0FBECDBFED010895DF93D92FA6D0CF
:1010B000E695D7952AED3FE049E45FE3B33A62074E
:1010C000730784079507D7952AF0A2EA49EC906840
:1010D00019D0BBD0E4E5F0E071D0DD0F0BF0EFD01C
:1010E000DD0F0BF49058DF91089579D030F07ED069
:1010F00020F031F49F3F11F41EF45DC00EF4E09532
:10110000E7FB53C0E92FB2D080F3BA176207730729
:101110008407950718F071F49EF5CAC00EF4E095A7
:101120000B2EBA2FA02D0B01B90190010C01CA01A1
:10113000A0011124FF27591B99F0593F50F4503E4C
:1011400068F11A16F040A22F232F342F4427585F3E
:10115000F3CF469537952795A795F0405395C9F756
:101160007EF41F16BA0B620B730B840BBAF091500E
:10117000A1F0FF0FBB1F661F771F881FC2F70EC0AD
:10118000BA0F621F731F841F48F487957795679580
:10119000B795F7959E3F08F0B3CF9395880F08F069
:1011A0009927EE0F97958795089597F99F6780E89F
:1011B00070E060E008959FEF80EC08959F938F9317
:1011C0007F936F93FF93EF939B01AC0142D9EF9113
:1011D000FF91F2D02F913F914F915F913AC9002436
:1011E0000A941616170618060906089500240A948C
:1011F00012161306140605060895DDCF3FD0E8F356
:10120000E894E0E0BB279F57F0F02AED3FE049EC7F
:1012100006C0EE0FBB0F661F771F881F28F0B23A7B
:1012200062077307840728F0B25A620B730B840BB2
:10123000E3959A9572F7803830F49A95BB0F661F44
:10124000771F881FD2F79048ABC0092E0394000C7B
:1012500011F4882352F0BB0F40F4BF2B11F460FF50
:1012600004C06F5F7F4F8F4F9F4F089557FD905879
:10127000440F551F59F05F3F71F04795880F97FB5A
:10128000991F61F09F3F79F0879508951216130614
:101290001406551FF2CF4695F1DF08C01616170643
:1012A0001806991FF1CF8695710561050894089578
:1012B000E894BB2766277727CB0197F908959B0110
:1012C000AC0160E070E080E89FE300C00CD0BDCFCF
:1012D0008DDF40F084DF30F021F45F3F19F065CFFF
:1012E0005111E7CF68CFC2DF98F39923C9F3552393
:1012F000B1F3951B550BBB27AA2762177307840709
:1013000038F09F5F5F4F220F331F441FAA1FA9F3BE
:1013100033D00E2E3AF0E0E830D091505040E695B0
:10132000001CCAF729D0FE2F27D0660F771F881F11
:10133000BB1F261737074807AB07B0E809F0BB0B00
:10134000802DBF01FF2793585F4F2AF09E3F510524
:1013500068F02BCFAECF5F3FECF3983EDCF3869581
:1013600077956795B795F7959F5FC9F7880F911D9A
:101370009695879597F90895E1E0660F771F881F86
:10138000BB1F621773078407BA0720F0621B730B39
:10139000840BBA0BEE1F88F7E09508959F3F31F05C
:1013A000915020F4879577956795B795880F911D93
:1013B0009695879597F90895DF93CF931F930F9391
:1013C000FF92EF92DF927B018C01689405C0DA2EC8
:1013D000EF0121D0FE01E894A59125913591459129
:1013E0005591AEF3EF018EDEFE019701A801DA946C
:1013F00079F7DF90EF90FF900F911F91CF91DF91E0
:101400000895EDDE28F0F2DE18F0952309F0CDCE38
:10141000D2CE11244ECF2ADFA0F3959FD1F3950FA2
:1014200050E0551F629FF001729FBB27F00DB11D68
:10143000639FAA27F00DB11DAA1F649F6627B00DF8
:10144000A11D661F829F2227B00DA11D621F739FE1
:10145000B00DA11D621F839FA00D611D221F749FEF
:101460003327A00D611D231F849F600D211D822F36
:10147000762F6A2F11249F5750408AF0E1F088237D
:101480004AF0EE0FFF1FBB1F661F771F881F91508A
:101490005040A9F79E3F510570F087CE0ACF5F3FBD
:1014A000ECF3983EDCF3869577956795B795F795BD
:1014B000E7959F5FC1F7FE2B880F911D9695879545
:0814C00097F90895F894FFCF9D
:1014C8000000000000000000000102020303030303
:1014D80004040404040404040505050505050505BC
:1014E800050505050505050506060606060606069C
:1014F8000606060606060606060606060606060684
:10150800060606060606060607070707070707076B
:101518000707070707070707070707070707070753
:101528000707070707070707070707070707070743
:101538000707070707070707070707070707070733
:10154800070707070707070708080808080808081B
:101558000808080808080808080808080808080803
:1015680008080808080808080808080808080808F3
:1015780008080808080808080808080808080808E3
:1015880008080808080808080808080808080808D3
:1015980008080808080808080808080808080808C3
:1015A80008080808080808080808080808080808B3
:1015B80008080808080808080808080808080808A3
:0815C8000808080808080808DB
:00000001FF
