:100000000C942A000C943F000C943F000C943F0089
:100010000C943F000C943F000C943F000C943F0064
:100020000C943F000C943F000C943F000C943F0054
:100030000C943F000C943F000C943F000C943F0044
:100040000C943F000C943F000C943F000C943F0034
:100050000C943F0011241FBECFE5D8E0DEBFCDBF1A
:1000600010E0A0E6B0E0EEE9F1E002C005900D92EC
:10007000AA36B107D9F70E9441000C94CD000C9428
:100080000000DF93CF93CDB7DEB760970FB6F8943B
:10009000DEBF0FBECDBFEAE3F0E01082EBE3F0E09D
:1000A0008FEF8083E7E3F0E08FEF8083E4E3F0E01D
:1000B0008FEF8083E1E3F0E08FEF80831982CE0140
:1000C00002969D878C87E0E6F0E0FF87EE87FAE0F6
:1000D000F88BEE85FF8500808E859F8501969F8732
:1000E0008E87EC85FD8500828C859D8501969D8798
:1000F0008C8798899150988BE889EE2351F7E2E339
:10010000F0E01082E8E3F0E01082E9E3F0E08081C3
:1001100080958983A5E3B0E0898194E6692F0E94E8
:10012000C100282F30E0CE010296FC01E20FF31F40
:1001300080818C93A2E3B0E0898194E6692F0E94CC
:10014000C100892F9AE0692F0E94C100282F30E05A
:10015000CE010296FC01E20FF31F80818C93A8E38D
:10016000B0E089819AE0692F0E94C100892F282F71
:1001700030E0CE010296FC01E20FF31F80818C93E8
:10018000C4CF991B79E004C0991F961708F0961BFD
:0E019000881F7A95C9F780950895F894FFCFDF
:0A019E003F065B4F666D7D077F6F23
:00000001FF
